:04000000F6EF03F024
:05060000000D0A0000DE
:10060600000E0F013A6F000E946E20EE1EF010EEF3
:1006160016F0050EDBCFE3FFE806FCE2000E0E6ED9
:10062600C20E0F6E010E106E000E116ECFEC03F0AF
:10063600290E156E960E146E7F0EE82EFED7142E1A
:10064600FCD7152EFAD700F0160E016E000E026EBC
:10065600A5EC03F0290E156E960E146E7F0EE82E8D
:10066600FED7142EFCD7152EFAD729D0000E1D6EF4
:10067600000E1C6E1DBE06D01D5010E1050E1C5C42
:10068600D8B00CD0160E1C24D96E000E1D20DA6EC2
:10069600DF500BEC04F01C4A1D2AECD7010E016E4C
:1006A600060E026EA5EC03F0290E156E960E146E5C
:1006B6007F0EE82EFED7142EFCD7152EFAD700F0A3
:1006C600D5D7000E096E000E0A6E000E0B6E000ED8
:1006D6000C6E0550061007100810D8B42AD0010E6B
:1006E6000D6E06D0D89005360636073608360D2A22
:1006F60008AEF8D7D89009360A360B360C360550B0
:10070600015C065002580750035808500458D8A0F8
:1007160009D00550015E0650025A0750035A085088
:10072600045A0980D89008320732063205320D2E57
:10073600E1D709C001F00AC002F00BC003F00CC0FB
:1007460004F0120015D09EA8FED701C0F6FF02C025
:10075600F7FFF86A050EF76403D00800F55005D0D8
:10076600F6CFE9FFF7CFEAFFEF50AD6E014A022A56
:1007760001C0F6FF02C0F7FFF86A050EF76403D062
:100786000800F55005D0F6CFE9FFF7CFEAFFEF50A6
:100796000009D8B41200D7D7000EAC6E000EAB6EAF
:1007A600AC98B886AB8EAB88AC84AC8A000E016E72
:1007B600090E026E3D0E036E000E046E0EC005F0AD
:1007C6000FC006F010C007F011C008F064EC03F08B
:1007D600FF0E0124126EFF0E0220136E1350B06E30
:1007E60012C0AFFF1200220EF66E080EF76E000E54
:1007F600F86E00EE1EF010EE06F00900F5CFEEFFE3
:10080600E550E150FAE1000EF86E000103EF03F047
:10081600016E9EA8FED701C0ADFF12005361686944
:020826006C0064
:020000040020DA
:08000000FFFFFFFFFFFFFFFF00
:020000040030CA
:0E000000FF251F3FFFBF85FF0FC00FE00F4021
:00000001FF
